{
  "contractName": "TestNFT",
  "abi": [
    {
      "inputs": [],
      "stateMutability": "nonpayable",
      "type": "constructor"
    },
    {
      "anonymous": false,
      "inputs": [
        {
          "indexed": true,
          "internalType": "address",
          "name": "owner",
          "type": "address"
        },
        {
          "indexed": true,
          "internalType": "address",
          "name": "approved",
          "type": "address"
        },
        {
          "indexed": true,
          "internalType": "uint256",
          "name": "tokenId",
          "type": "uint256"
        }
      ],
      "name": "Approval",
      "type": "event"
    },
    {
      "anonymous": false,
      "inputs": [
        {
          "indexed": true,
          "internalType": "address",
          "name": "owner",
          "type": "address"
        },
        {
          "indexed": true,
          "internalType": "address",
          "name": "operator",
          "type": "address"
        },
        {
          "indexed": false,
          "internalType": "bool",
          "name": "approved",
          "type": "bool"
        }
      ],
      "name": "ApprovalForAll",
      "type": "event"
    },
    {
      "anonymous": false,
      "inputs": [
        {
          "indexed": true,
          "internalType": "address",
          "name": "previousOwner",
          "type": "address"
        },
        {
          "indexed": true,
          "internalType": "address",
          "name": "newOwner",
          "type": "address"
        }
      ],
      "name": "OwnershipTransferred",
      "type": "event"
    },
    {
      "anonymous": false,
      "inputs": [
        {
          "indexed": true,
          "internalType": "address",
          "name": "from",
          "type": "address"
        },
        {
          "indexed": true,
          "internalType": "address",
          "name": "to",
          "type": "address"
        },
        {
          "indexed": true,
          "internalType": "uint256",
          "name": "tokenId",
          "type": "uint256"
        }
      ],
      "name": "Transfer",
      "type": "event"
    },
    {
      "inputs": [
        {
          "internalType": "address",
          "name": "to",
          "type": "address"
        },
        {
          "internalType": "uint256",
          "name": "tokenId",
          "type": "uint256"
        }
      ],
      "name": "approve",
      "outputs": [],
      "stateMutability": "nonpayable",
      "type": "function"
    },
    {
      "inputs": [
        {
          "internalType": "address",
          "name": "owner",
          "type": "address"
        }
      ],
      "name": "balanceOf",
      "outputs": [
        {
          "internalType": "uint256",
          "name": "",
          "type": "uint256"
        }
      ],
      "stateMutability": "view",
      "type": "function",
      "constant": true
    },
    {
      "inputs": [
        {
          "internalType": "uint256",
          "name": "tokenId",
          "type": "uint256"
        }
      ],
      "name": "getApproved",
      "outputs": [
        {
          "internalType": "address",
          "name": "",
          "type": "address"
        }
      ],
      "stateMutability": "view",
      "type": "function",
      "constant": true
    },
    {
      "inputs": [
        {
          "internalType": "address",
          "name": "owner",
          "type": "address"
        },
        {
          "internalType": "address",
          "name": "operator",
          "type": "address"
        }
      ],
      "name": "isApprovedForAll",
      "outputs": [
        {
          "internalType": "bool",
          "name": "",
          "type": "bool"
        }
      ],
      "stateMutability": "view",
      "type": "function",
      "constant": true
    },
    {
      "inputs": [],
      "name": "name",
      "outputs": [
        {
          "internalType": "string",
          "name": "",
          "type": "string"
        }
      ],
      "stateMutability": "view",
      "type": "function",
      "constant": true
    },
    {
      "inputs": [],
      "name": "owner",
      "outputs": [
        {
          "internalType": "address",
          "name": "",
          "type": "address"
        }
      ],
      "stateMutability": "view",
      "type": "function",
      "constant": true
    },
    {
      "inputs": [
        {
          "internalType": "uint256",
          "name": "tokenId",
          "type": "uint256"
        }
      ],
      "name": "ownerOf",
      "outputs": [
        {
          "internalType": "address",
          "name": "",
          "type": "address"
        }
      ],
      "stateMutability": "view",
      "type": "function",
      "constant": true
    },
    {
      "inputs": [],
      "name": "renounceOwnership",
      "outputs": [],
      "stateMutability": "nonpayable",
      "type": "function"
    },
    {
      "inputs": [
        {
          "internalType": "address",
          "name": "from",
          "type": "address"
        },
        {
          "internalType": "address",
          "name": "to",
          "type": "address"
        },
        {
          "internalType": "uint256",
          "name": "tokenId",
          "type": "uint256"
        }
      ],
      "name": "safeTransferFrom",
      "outputs": [],
      "stateMutability": "nonpayable",
      "type": "function"
    },
    {
      "inputs": [
        {
          "internalType": "address",
          "name": "from",
          "type": "address"
        },
        {
          "internalType": "address",
          "name": "to",
          "type": "address"
        },
        {
          "internalType": "uint256",
          "name": "tokenId",
          "type": "uint256"
        },
        {
          "internalType": "bytes",
          "name": "data",
          "type": "bytes"
        }
      ],
      "name": "safeTransferFrom",
      "outputs": [],
      "stateMutability": "nonpayable",
      "type": "function"
    },
    {
      "inputs": [
        {
          "internalType": "address",
          "name": "operator",
          "type": "address"
        },
        {
          "internalType": "bool",
          "name": "approved",
          "type": "bool"
        }
      ],
      "name": "setApprovalForAll",
      "outputs": [],
      "stateMutability": "nonpayable",
      "type": "function"
    },
    {
      "inputs": [
        {
          "internalType": "bytes4",
          "name": "interfaceId",
          "type": "bytes4"
        }
      ],
      "name": "supportsInterface",
      "outputs": [
        {
          "internalType": "bool",
          "name": "",
          "type": "bool"
        }
      ],
      "stateMutability": "view",
      "type": "function",
      "constant": true
    },
    {
      "inputs": [],
      "name": "symbol",
      "outputs": [
        {
          "internalType": "string",
          "name": "",
          "type": "string"
        }
      ],
      "stateMutability": "view",
      "type": "function",
      "constant": true
    },
    {
      "inputs": [
        {
          "internalType": "address",
          "name": "from",
          "type": "address"
        },
        {
          "internalType": "address",
          "name": "to",
          "type": "address"
        },
        {
          "internalType": "uint256",
          "name": "tokenId",
          "type": "uint256"
        }
      ],
      "name": "transferFrom",
      "outputs": [],
      "stateMutability": "nonpayable",
      "type": "function"
    },
    {
      "inputs": [
        {
          "internalType": "address",
          "name": "newOwner",
          "type": "address"
        }
      ],
      "name": "transferOwnership",
      "outputs": [],
      "stateMutability": "nonpayable",
      "type": "function"
    },
    {
      "inputs": [
        {
          "internalType": "address[]",
          "name": "to",
          "type": "address[]"
        },
        {
          "internalType": "string",
          "name": "uri",
          "type": "string"
        }
      ],
      "name": "mintBatch",
      "outputs": [],
      "stateMutability": "nonpayable",
      "type": "function"
    },
    {
      "inputs": [
        {
          "internalType": "address",
          "name": "to",
          "type": "address"
        },
        {
          "internalType": "string",
          "name": "uri",
          "type": "string"
        }
      ],
      "name": "safeMint",
      "outputs": [],
      "stateMutability": "nonpayable",
      "type": "function"
    },
    {
      "inputs": [
        {
          "internalType": "uint256",
          "name": "tokenId",
          "type": "uint256"
        }
      ],
      "name": "tokenURI",
      "outputs": [
        {
          "internalType": "string",
          "name": "",
          "type": "string"
        }
      ],
      "stateMutability": "view",
      "type": "function",
      "constant": true
    },
    {
      "inputs": [],
      "name": "getTotalAmount",
      "outputs": [
        {
          "internalType": "uint256",
          "name": "",
          "type": "uint256"
        }
      ],
      "stateMutability": "view",
      "type": "function",
      "constant": true
    },
    {
      "inputs": [
        {
          "internalType": "uint256",
          "name": "tokenId",
          "type": "uint256"
        },
        {
          "internalType": "address",
          "name": "owner",
          "type": "address"
        }
      ],
      "name": "isTokenOwner",
      "outputs": [
        {
          "internalType": "bool",
          "name": "",
          "type": "bool"
        }
      ],
      "stateMutability": "view",
      "type": "function",
      "constant": true
    },
    {
      "inputs": [
        {
          "internalType": "uint256",
          "name": "tokenId",
          "type": "uint256"
        }
      ],
      "name": "getTokenOwner",
      "outputs": [
        {
          "internalType": "address",
          "name": "",
          "type": "address"
        }
      ],
      "stateMutability": "view",
      "type": "function",
      "constant": true
    }
  ],
  "bytecode": "0x608060405260006009553480156200001657600080fd5b506040518060400160405280600781526020017f546573744e4654000000000000000000000000000000000000000000000000008152506040518060400160405280600381526020017f4e46540000000000000000000000000000000000000000000000000000000000815250816000908162000094919062000417565b508060019081620000a6919062000417565b505050620000c9620000bd620000cf60201b60201c565b620000d760201b60201c565b620004fe565b600033905090565b6000600760009054906101000a900473ffffffffffffffffffffffffffffffffffffffff16905081600760006101000a81548173ffffffffffffffffffffffffffffffffffffffff021916908373ffffffffffffffffffffffffffffffffffffffff1602179055508173ffffffffffffffffffffffffffffffffffffffff168173ffffffffffffffffffffffffffffffffffffffff167f8be0079c531659141344cd1fd0a4f28419497f9722a3daafe3b4186f6b6457e060405160405180910390a35050565b600081519050919050565b7f4e487b7100000000000000000000000000000000000000000000000000000000600052604160045260246000fd5b7f4e487b7100000000000000000000000000000000000000000000000000000000600052602260045260246000fd5b600060028204905060018216806200021f57607f821691505b602082108103620002355762000234620001d7565b5b50919050565b60008190508160005260206000209050919050565b60006020601f8301049050919050565b600082821b905092915050565b6000600883026200029f7fffffffffffffffffffffffffffffffffffffffffffffffffffffffffffffffff8262000260565b620002ab868362000260565b95508019841693508086168417925050509392505050565b6000819050919050565b6000819050919050565b6000620002f8620002f2620002ec84620002c3565b620002cd565b620002c3565b9050919050565b6000819050919050565b6200031483620002d7565b6200032c6200032382620002ff565b8484546200026d565b825550505050565b600090565b6200034362000334565b6200035081848462000309565b505050565b5b8181101562000378576200036c60008262000339565b60018101905062000356565b5050565b601f821115620003c75762000391816200023b565b6200039c8462000250565b81016020851015620003ac578190505b620003c4620003bb8562000250565b83018262000355565b50505b505050565b600082821c905092915050565b6000620003ec60001984600802620003cc565b1980831691505092915050565b6000620004078383620003d9565b9150826002028217905092915050565b62000422826200019d565b67ffffffffffffffff8111156200043e576200043d620001a8565b5b6200044a825462000206565b620004578282856200037c565b600060209050601f8311600181146200048f57600084156200047a578287015190505b620004868582620003f9565b865550620004f6565b601f1984166200049f866200023b565b60005b82811015620004c957848901518255600182019150602085019450602081019050620004a2565b86831015620004e95784890151620004e5601f891682620003d9565b8355505b6001600288020188555050505b505050505050565b6131ff806200050e6000396000f3fe608060405234801561001057600080fd5b50600436106101375760003560e01c8063715018a6116100b8578063b88d4fde1161007c578063b88d4fde1461033a578063c87b56dd14610356578063d204c45e14610386578063d59f2827146103a2578063e985e9c5146103d2578063f2fde38b1461040257610137565b8063715018a6146102a85780638da5cb5b146102b257806395d89b41146102d0578063a22cb465146102ee578063a5cd761f1461030a57610137565b806342842e0e116100ff57806342842e0e146101f2578063545173631461020e5780636352211e1461022a57806365ac43411461025a57806370a082311461027857610137565b806301ffc9a71461013c57806306fdde031461016c578063081812fc1461018a578063095ea7b3146101ba57806323b872dd146101d6575b600080fd5b61015660048036038101906101519190611dca565b61041e565b6040516101639190611e12565b60405180910390f35b610174610500565b6040516101819190611ebd565b60405180910390f35b6101a4600480360381019061019f9190611f15565b610592565b6040516101b19190611f83565b60405180910390f35b6101d460048036038101906101cf9190611fca565b6105d8565b005b6101f060048036038101906101eb919061200a565b6106ef565b005b61020c6004803603810190610207919061200a565b61074f565b005b6102286004803603810190610223919061225a565b61076f565b005b610244600480360381019061023f9190611f15565b6107bf565b6040516102519190611f83565b60405180910390f35b610262610845565b60405161026f91906122e1565b60405180910390f35b610292600480360381019061028d91906122fc565b61084f565b60405161029f91906122e1565b60405180910390f35b6102b0610906565b005b6102ba61091a565b6040516102c79190611f83565b60405180910390f35b6102d8610944565b6040516102e59190611ebd565b60405180910390f35b61030860048036038101906103039190612355565b6109d6565b005b610324600480360381019061031f9190611f15565b6109ec565b6040516103319190611f83565b60405180910390f35b610354600480360381019061034f9190612436565b6109fe565b005b610370600480360381019061036b9190611f15565b610a60565b60405161037d9190611ebd565b60405180910390f35b6103a0600480360381019061039b91906124b9565b610a72565b005b6103bc60048036038101906103b79190612515565b610ac3565b6040516103c99190611e12565b60405180910390f35b6103ec60048036038101906103e79190612555565b610b04565b6040516103f99190611e12565b60405180910390f35b61041c600480360381019061041791906122fc565b610b98565b005b60007f80ac58cd000000000000000000000000000000000000000000000000000000007bffffffffffffffffffffffffffffffffffffffffffffffffffffffff1916827bffffffffffffffffffffffffffffffffffffffffffffffffffffffff191614806104e957507f5b5e139f000000000000000000000000000000000000000000000000000000007bffffffffffffffffffffffffffffffffffffffffffffffffffffffff1916827bffffffffffffffffffffffffffffffffffffffffffffffffffffffff1916145b806104f957506104f882610c1b565b5b9050919050565b60606000805461050f906125c4565b80601f016020809104026020016040519081016040528092919081815260200182805461053b906125c4565b80156105885780601f1061055d57610100808354040283529160200191610588565b820191906000526020600020905b81548152906001019060200180831161056b57829003601f168201915b5050505050905090565b600061059d82610c85565b6004600083815260200190815260200160002060009054906101000a900473ffffffffffffffffffffffffffffffffffffffff169050919050565b60006105e3826107bf565b90508073ffffffffffffffffffffffffffffffffffffffff168373ffffffffffffffffffffffffffffffffffffffff1603610653576040517f08c379a000000000000000000000000000000000000000000000000000000000815260040161064a90612667565b60405180910390fd5b8073ffffffffffffffffffffffffffffffffffffffff16610672610cd0565b73ffffffffffffffffffffffffffffffffffffffff1614806106a157506106a08161069b610cd0565b610b04565b5b6106e0576040517f08c379a00000000000000000000000000000000000000000000000000000000081526004016106d7906126f9565b60405180910390fd5b6106ea8383610cd8565b505050565b6107006106fa610cd0565b82610d91565b61073f576040517f08c379a00000000000000000000000000000000000000000000000000000000081526004016107369061278b565b60405180910390fd5b61074a838383610e26565b505050565b61076a838383604051806020016040528060008152506109fe565b505050565b61077761111f565b60005b82518110156107ba576107a7838281518110610799576107986127ab565b5b602002602001015183610a72565b80806107b290612809565b91505061077a565b505050565b6000806107cb8361119d565b9050600073ffffffffffffffffffffffffffffffffffffffff168173ffffffffffffffffffffffffffffffffffffffff160361083c576040517f08c379a00000000000000000000000000000000000000000000000000000000081526004016108339061289d565b60405180910390fd5b80915050919050565b6000600954905090565b60008073ffffffffffffffffffffffffffffffffffffffff168273ffffffffffffffffffffffffffffffffffffffff16036108bf576040517f08c379a00000000000000000000000000000000000000000000000000000000081526004016108b69061292f565b60405180910390fd5b600360008373ffffffffffffffffffffffffffffffffffffffff1673ffffffffffffffffffffffffffffffffffffffff168152602001908152602001600020549050919050565b61090e61111f565b61091860006111da565b565b6000600760009054906101000a900473ffffffffffffffffffffffffffffffffffffffff16905090565b606060018054610953906125c4565b80601f016020809104026020016040519081016040528092919081815260200182805461097f906125c4565b80156109cc5780601f106109a1576101008083540402835291602001916109cc565b820191906000526020600020905b8154815290600101906020018083116109af57829003601f168201915b5050505050905090565b6109e86109e1610cd0565b83836112a0565b5050565b60006109f7826107bf565b9050919050565b610a0f610a09610cd0565b83610d91565b610a4e576040517f08c379a0000000000000000000000000000000000000000000000000000000008152600401610a459061278b565b60405180910390fd5b610a5a8484848461140c565b50505050565b6060610a6b82611468565b9050919050565b610a7a61111f565b6000610a86600861157a565b9050610a926008611588565b610a9c838261159e565b610aa681836115bc565b60096000815480929190610ab990612809565b9190505550505050565b60008173ffffffffffffffffffffffffffffffffffffffff16610ae5846107bf565b73ffffffffffffffffffffffffffffffffffffffff1614905092915050565b6000600560008473ffffffffffffffffffffffffffffffffffffffff1673ffffffffffffffffffffffffffffffffffffffff16815260200190815260200160002060008373ffffffffffffffffffffffffffffffffffffffff1673ffffffffffffffffffffffffffffffffffffffff16815260200190815260200160002060009054906101000a900460ff16905092915050565b610ba061111f565b600073ffffffffffffffffffffffffffffffffffffffff168173ffffffffffffffffffffffffffffffffffffffff1603610c0f576040517f08c379a0000000000000000000000000000000000000000000000000000000008152600401610c06906129c1565b60405180910390fd5b610c18816111da565b50565b60007f01ffc9a7000000000000000000000000000000000000000000000000000000007bffffffffffffffffffffffffffffffffffffffffffffffffffffffff1916827bffffffffffffffffffffffffffffffffffffffffffffffffffffffff1916149050919050565b610c8e81611629565b610ccd576040517f08c379a0000000000000000000000000000000000000000000000000000000008152600401610cc49061289d565b60405180910390fd5b50565b600033905090565b816004600083815260200190815260200160002060006101000a81548173ffffffffffffffffffffffffffffffffffffffff021916908373ffffffffffffffffffffffffffffffffffffffff160217905550808273ffffffffffffffffffffffffffffffffffffffff16610d4b836107bf565b73ffffffffffffffffffffffffffffffffffffffff167f8c5be1e5ebec7d5bd14f71427d1e84f3dd0314c0f7b2291e5b200ac8c7c3b92560405160405180910390a45050565b600080610d9d836107bf565b90508073ffffffffffffffffffffffffffffffffffffffff168473ffffffffffffffffffffffffffffffffffffffff161480610ddf5750610dde8185610b04565b5b80610e1d57508373ffffffffffffffffffffffffffffffffffffffff16610e0584610592565b73ffffffffffffffffffffffffffffffffffffffff16145b91505092915050565b8273ffffffffffffffffffffffffffffffffffffffff16610e46826107bf565b73ffffffffffffffffffffffffffffffffffffffff1614610e9c576040517f08c379a0000000000000000000000000000000000000000000000000000000008152600401610e9390612a53565b60405180910390fd5b600073ffffffffffffffffffffffffffffffffffffffff168273ffffffffffffffffffffffffffffffffffffffff1603610f0b576040517f08c379a0000000000000000000000000000000000000000000000000000000008152600401610f0290612ae5565b60405180910390fd5b610f18838383600161166a565b8273ffffffffffffffffffffffffffffffffffffffff16610f38826107bf565b73ffffffffffffffffffffffffffffffffffffffff1614610f8e576040517f08c379a0000000000000000000000000000000000000000000000000000000008152600401610f8590612a53565b60405180910390fd5b6004600082815260200190815260200160002060006101000a81549073ffffffffffffffffffffffffffffffffffffffff02191690556001600360008573ffffffffffffffffffffffffffffffffffffffff1673ffffffffffffffffffffffffffffffffffffffff168152602001908152602001600020600082825403925050819055506001600360008473ffffffffffffffffffffffffffffffffffffffff1673ffffffffffffffffffffffffffffffffffffffff16815260200190815260200160002060008282540192505081905550816002600083815260200190815260200160002060006101000a81548173ffffffffffffffffffffffffffffffffffffffff021916908373ffffffffffffffffffffffffffffffffffffffff160217905550808273ffffffffffffffffffffffffffffffffffffffff168473ffffffffffffffffffffffffffffffffffffffff167fddf252ad1be2c89b69c2b068fc378daa952ba7f163c4a11628f55a4df523b3ef60405160405180910390a461111a8383836001611670565b505050565b611127610cd0565b73ffffffffffffffffffffffffffffffffffffffff1661114561091a565b73ffffffffffffffffffffffffffffffffffffffff161461119b576040517f08c379a000000000000000000000000000000000000000000000000000000000815260040161119290612b51565b60405180910390fd5b565b60006002600083815260200190815260200160002060009054906101000a900473ffffffffffffffffffffffffffffffffffffffff169050919050565b6000600760009054906101000a900473ffffffffffffffffffffffffffffffffffffffff16905081600760006101000a81548173ffffffffffffffffffffffffffffffffffffffff021916908373ffffffffffffffffffffffffffffffffffffffff1602179055508173ffffffffffffffffffffffffffffffffffffffff168173ffffffffffffffffffffffffffffffffffffffff167f8be0079c531659141344cd1fd0a4f28419497f9722a3daafe3b4186f6b6457e060405160405180910390a35050565b8173ffffffffffffffffffffffffffffffffffffffff168373ffffffffffffffffffffffffffffffffffffffff160361130e576040517f08c379a000000000000000000000000000000000000000000000000000000000815260040161130590612bbd565b60405180910390fd5b80600560008573ffffffffffffffffffffffffffffffffffffffff1673ffffffffffffffffffffffffffffffffffffffff16815260200190815260200160002060008473ffffffffffffffffffffffffffffffffffffffff1673ffffffffffffffffffffffffffffffffffffffff16815260200190815260200160002060006101000a81548160ff0219169083151502179055508173ffffffffffffffffffffffffffffffffffffffff168373ffffffffffffffffffffffffffffffffffffffff167f17307eab39ab6107e8899845ad3d59bd9653f200f220920489ca2b5937696c31836040516113ff9190611e12565b60405180910390a3505050565b611417848484610e26565b61142384848484611676565b611462576040517f08c379a000000000000000000000000000000000000000000000000000000000815260040161145990612c4f565b60405180910390fd5b50505050565b606061147382610c85565b6000600660008481526020019081526020016000208054611493906125c4565b80601f01602080910402602001604051908101604052809291908181526020018280546114bf906125c4565b801561150c5780601f106114e15761010080835404028352916020019161150c565b820191906000526020600020905b8154815290600101906020018083116114ef57829003601f168201915b50505050509050600061151d6117fd565b90506000815103611532578192505050611575565b60008251111561156757808260405160200161154f929190612cab565b60405160208183030381529060405292505050611575565b6115708461183a565b925050505b919050565b600081600001549050919050565b6001816000016000828254019250508190555050565b6115b88282604051806020016040528060008152506118a2565b5050565b6115c582611629565b611604576040517f08c379a00000000000000000000000000000000000000000000000000000000081526004016115fb90612d41565b60405180910390fd5b806006600084815260200190815260200160002090816116249190612f0d565b505050565b60008073ffffffffffffffffffffffffffffffffffffffff1661164b8361119d565b73ffffffffffffffffffffffffffffffffffffffff1614159050919050565b50505050565b50505050565b60006116978473ffffffffffffffffffffffffffffffffffffffff166118fd565b156117f0578373ffffffffffffffffffffffffffffffffffffffff1663150b7a026116c0610cd0565b8786866040518563ffffffff1660e01b81526004016116e29493929190613034565b6020604051808303816000875af192505050801561171e57506040513d601f19601f8201168201806040525081019061171b9190613095565b60015b6117a0573d806000811461174e576040519150601f19603f3d011682016040523d82523d6000602084013e611753565b606091505b506000815103611798576040517f08c379a000000000000000000000000000000000000000000000000000000000815260040161178f90612c4f565b60405180910390fd5b805181602001fd5b63150b7a0260e01b7bffffffffffffffffffffffffffffffffffffffffffffffffffffffff1916817bffffffffffffffffffffffffffffffffffffffffffffffffffffffff1916149150506117f5565b600190505b949350505050565b60606040518060400160405280601581526020017f68747470733a2f2f697066732e696f2f697066732f0000000000000000000000815250905090565b606061184582610c85565b600061184f6117fd565b9050600081511161186f576040518060200160405280600081525061189a565b8061187984611920565b60405160200161188a929190612cab565b6040516020818303038152906040525b915050919050565b6118ac83836119ee565b6118b96000848484611676565b6118f8576040517f08c379a00000000000000000000000000000000000000000000000000000000081526004016118ef90612c4f565b60405180910390fd5b505050565b6000808273ffffffffffffffffffffffffffffffffffffffff163b119050919050565b60606000600161192f84611c0b565b01905060008167ffffffffffffffff81111561194e5761194d612062565b5b6040519080825280601f01601f1916602001820160405280156119805781602001600182028036833780820191505090505b509050600082602001820190505b6001156119e3578080600190039150507f3031323334353637383961626364656600000000000000000000000000000000600a86061a8153600a85816119d7576119d66130c2565b5b0494506000850361198e575b819350505050919050565b600073ffffffffffffffffffffffffffffffffffffffff168273ffffffffffffffffffffffffffffffffffffffff1603611a5d576040517f08c379a0000000000000000000000000000000000000000000000000000000008152600401611a549061313d565b60405180910390fd5b611a6681611629565b15611aa6576040517f08c379a0000000000000000000000000000000000000000000000000000000008152600401611a9d906131a9565b60405180910390fd5b611ab460008383600161166a565b611abd81611629565b15611afd576040517f08c379a0000000000000000000000000000000000000000000000000000000008152600401611af4906131a9565b60405180910390fd5b6001600360008473ffffffffffffffffffffffffffffffffffffffff1673ffffffffffffffffffffffffffffffffffffffff16815260200190815260200160002060008282540192505081905550816002600083815260200190815260200160002060006101000a81548173ffffffffffffffffffffffffffffffffffffffff021916908373ffffffffffffffffffffffffffffffffffffffff160217905550808273ffffffffffffffffffffffffffffffffffffffff16600073ffffffffffffffffffffffffffffffffffffffff167fddf252ad1be2c89b69c2b068fc378daa952ba7f163c4a11628f55a4df523b3ef60405160405180910390a4611c07600083836001611670565b5050565b600080600090507a184f03e93ff9f4daa797ed6e38ed64bf6a1f0100000000000000008310611c69577a184f03e93ff9f4daa797ed6e38ed64bf6a1f0100000000000000008381611c5f57611c5e6130c2565b5b0492506040810190505b6d04ee2d6d415b85acef81000000008310611ca6576d04ee2d6d415b85acef81000000008381611c9c57611c9b6130c2565b5b0492506020810190505b662386f26fc100008310611cd557662386f26fc100008381611ccb57611cca6130c2565b5b0492506010810190505b6305f5e1008310611cfe576305f5e1008381611cf457611cf36130c2565b5b0492506008810190505b6127108310611d23576127108381611d1957611d186130c2565b5b0492506004810190505b60648310611d465760648381611d3c57611d3b6130c2565b5b0492506002810190505b600a8310611d55576001810190505b80915050919050565b6000604051905090565b600080fd5b600080fd5b60007fffffffff0000000000000000000000000000000000000000000000000000000082169050919050565b611da781611d72565b8114611db257600080fd5b50565b600081359050611dc481611d9e565b92915050565b600060208284031215611de057611ddf611d68565b5b6000611dee84828501611db5565b91505092915050565b60008115159050919050565b611e0c81611df7565b82525050565b6000602082019050611e276000830184611e03565b92915050565b600081519050919050565b600082825260208201905092915050565b60005b83811015611e67578082015181840152602081019050611e4c565b60008484015250505050565b6000601f19601f8301169050919050565b6000611e8f82611e2d565b611e998185611e38565b9350611ea9818560208601611e49565b611eb281611e73565b840191505092915050565b60006020820190508181036000830152611ed78184611e84565b905092915050565b6000819050919050565b611ef281611edf565b8114611efd57600080fd5b50565b600081359050611f0f81611ee9565b92915050565b600060208284031215611f2b57611f2a611d68565b5b6000611f3984828501611f00565b91505092915050565b600073ffffffffffffffffffffffffffffffffffffffff82169050919050565b6000611f6d82611f42565b9050919050565b611f7d81611f62565b82525050565b6000602082019050611f986000830184611f74565b92915050565b611fa781611f62565b8114611fb257600080fd5b50565b600081359050611fc481611f9e565b92915050565b60008060408385031215611fe157611fe0611d68565b5b6000611fef85828601611fb5565b925050602061200085828601611f00565b9150509250929050565b60008060006060848603121561202357612022611d68565b5b600061203186828701611fb5565b935050602061204286828701611fb5565b925050604061205386828701611f00565b9150509250925092565b600080fd5b7f4e487b7100000000000000000000000000000000000000000000000000000000600052604160045260246000fd5b61209a82611e73565b810181811067ffffffffffffffff821117156120b9576120b8612062565b5b80604052505050565b60006120cc611d5e565b90506120d88282612091565b919050565b600067ffffffffffffffff8211156120f8576120f7612062565b5b602082029050602081019050919050565b600080fd5b600061212161211c846120dd565b6120c2565b9050808382526020820190506020840283018581111561214457612143612109565b5b835b8181101561216d57806121598882611fb5565b845260208401935050602081019050612146565b5050509392505050565b600082601f83011261218c5761218b61205d565b5b813561219c84826020860161210e565b91505092915050565b600080fd5b600067ffffffffffffffff8211156121c5576121c4612062565b5b6121ce82611e73565b9050602081019050919050565b82818337600083830152505050565b60006121fd6121f8846121aa565b6120c2565b905082815260208101848484011115612219576122186121a5565b5b6122248482856121db565b509392505050565b600082601f8301126122415761224061205d565b5b81356122518482602086016121ea565b91505092915050565b6000806040838503121561227157612270611d68565b5b600083013567ffffffffffffffff81111561228f5761228e611d6d565b5b61229b85828601612177565b925050602083013567ffffffffffffffff8111156122bc576122bb611d6d565b5b6122c88582860161222c565b9150509250929050565b6122db81611edf565b82525050565b60006020820190506122f660008301846122d2565b92915050565b60006020828403121561231257612311611d68565b5b600061232084828501611fb5565b91505092915050565b61233281611df7565b811461233d57600080fd5b50565b60008135905061234f81612329565b92915050565b6000806040838503121561236c5761236b611d68565b5b600061237a85828601611fb5565b925050602061238b85828601612340565b9150509250929050565b600067ffffffffffffffff8211156123b0576123af612062565b5b6123b982611e73565b9050602081019050919050565b60006123d96123d484612395565b6120c2565b9050828152602081018484840111156123f5576123f46121a5565b5b6124008482856121db565b509392505050565b600082601f83011261241d5761241c61205d565b5b813561242d8482602086016123c6565b91505092915050565b600080600080608085870312156124505761244f611d68565b5b600061245e87828801611fb5565b945050602061246f87828801611fb5565b935050604061248087828801611f00565b925050606085013567ffffffffffffffff8111156124a1576124a0611d6d565b5b6124ad87828801612408565b91505092959194509250565b600080604083850312156124d0576124cf611d68565b5b60006124de85828601611fb5565b925050602083013567ffffffffffffffff8111156124ff576124fe611d6d565b5b61250b8582860161222c565b9150509250929050565b6000806040838503121561252c5761252b611d68565b5b600061253a85828601611f00565b925050602061254b85828601611fb5565b9150509250929050565b6000806040838503121561256c5761256b611d68565b5b600061257a85828601611fb5565b925050602061258b85828601611fb5565b9150509250929050565b7f4e487b7100000000000000000000000000000000000000000000000000000000600052602260045260246000fd5b600060028204905060018216806125dc57607f821691505b6020821081036125ef576125ee612595565b5b50919050565b7f4552433732313a20617070726f76616c20746f2063757272656e74206f776e6560008201527f7200000000000000000000000000000000000000000000000000000000000000602082015250565b6000612651602183611e38565b915061265c826125f5565b604082019050919050565b6000602082019050818103600083015261268081612644565b9050919050565b7f4552433732313a20617070726f76652063616c6c6572206973206e6f7420746f60008201527f6b656e206f776e6572206f7220617070726f76656420666f7220616c6c000000602082015250565b60006126e3603d83611e38565b91506126ee82612687565b604082019050919050565b60006020820190508181036000830152612712816126d6565b9050919050565b7f4552433732313a2063616c6c6572206973206e6f7420746f6b656e206f776e6560008201527f72206f7220617070726f76656400000000000000000000000000000000000000602082015250565b6000612775602d83611e38565b915061278082612719565b604082019050919050565b600060208201905081810360008301526127a481612768565b9050919050565b7f4e487b7100000000000000000000000000000000000000000000000000000000600052603260045260246000fd5b7f4e487b7100000000000000000000000000000000000000000000000000000000600052601160045260246000fd5b600061281482611edf565b91507fffffffffffffffffffffffffffffffffffffffffffffffffffffffffffffffff8203612846576128456127da565b5b600182019050919050565b7f4552433732313a20696e76616c696420746f6b656e2049440000000000000000600082015250565b6000612887601883611e38565b915061289282612851565b602082019050919050565b600060208201905081810360008301526128b68161287a565b9050919050565b7f4552433732313a2061646472657373207a65726f206973206e6f74206120766160008201527f6c6964206f776e65720000000000000000000000000000000000000000000000602082015250565b6000612919602983611e38565b9150612924826128bd565b604082019050919050565b600060208201905081810360008301526129488161290c565b9050919050565b7f4f776e61626c653a206e6577206f776e657220697320746865207a65726f206160008201527f6464726573730000000000000000000000000000000000000000000000000000602082015250565b60006129ab602683611e38565b91506129b68261294f565b604082019050919050565b600060208201905081810360008301526129da8161299e565b9050919050565b7f4552433732313a207472616e736665722066726f6d20696e636f72726563742060008201527f6f776e6572000000000000000000000000000000000000000000000000000000602082015250565b6000612a3d602583611e38565b9150612a48826129e1565b604082019050919050565b60006020820190508181036000830152612a6c81612a30565b9050919050565b7f4552433732313a207472616e7366657220746f20746865207a65726f2061646460008201527f7265737300000000000000000000000000000000000000000000000000000000602082015250565b6000612acf602483611e38565b9150612ada82612a73565b604082019050919050565b60006020820190508181036000830152612afe81612ac2565b9050919050565b7f4f776e61626c653a2063616c6c6572206973206e6f7420746865206f776e6572600082015250565b6000612b3b602083611e38565b9150612b4682612b05565b602082019050919050565b60006020820190508181036000830152612b6a81612b2e565b9050919050565b7f4552433732313a20617070726f766520746f2063616c6c657200000000000000600082015250565b6000612ba7601983611e38565b9150612bb282612b71565b602082019050919050565b60006020820190508181036000830152612bd681612b9a565b9050919050565b7f4552433732313a207472616e7366657220746f206e6f6e20455243373231526560008201527f63656976657220696d706c656d656e7465720000000000000000000000000000602082015250565b6000612c39603283611e38565b9150612c4482612bdd565b604082019050919050565b60006020820190508181036000830152612c6881612c2c565b9050919050565b600081905092915050565b6000612c8582611e2d565b612c8f8185612c6f565b9350612c9f818560208601611e49565b80840191505092915050565b6000612cb78285612c7a565b9150612cc38284612c7a565b91508190509392505050565b7f45524337323155524953746f726167653a2055524920736574206f66206e6f6e60008201527f6578697374656e7420746f6b656e000000000000000000000000000000000000602082015250565b6000612d2b602e83611e38565b9150612d3682612ccf565b604082019050919050565b60006020820190508181036000830152612d5a81612d1e565b9050919050565b60008190508160005260206000209050919050565b60006020601f8301049050919050565b600082821b905092915050565b600060088302612dc37fffffffffffffffffffffffffffffffffffffffffffffffffffffffffffffffff82612d86565b612dcd8683612d86565b95508019841693508086168417925050509392505050565b6000819050919050565b6000612e0a612e05612e0084611edf565b612de5565b611edf565b9050919050565b6000819050919050565b612e2483612def565b612e38612e3082612e11565b848454612d93565b825550505050565b600090565b612e4d612e40565b612e58818484612e1b565b505050565b5b81811015612e7c57612e71600082612e45565b600181019050612e5e565b5050565b601f821115612ec157612e9281612d61565b612e9b84612d76565b81016020851015612eaa578190505b612ebe612eb685612d76565b830182612e5d565b50505b505050565b600082821c905092915050565b6000612ee460001984600802612ec6565b1980831691505092915050565b6000612efd8383612ed3565b9150826002028217905092915050565b612f1682611e2d565b67ffffffffffffffff811115612f2f57612f2e612062565b5b612f3982546125c4565b612f44828285612e80565b600060209050601f831160018114612f775760008415612f65578287015190505b612f6f8582612ef1565b865550612fd7565b601f198416612f8586612d61565b60005b82811015612fad57848901518255600182019150602085019450602081019050612f88565b86831015612fca5784890151612fc6601f891682612ed3565b8355505b6001600288020188555050505b505050505050565b600081519050919050565b600082825260208201905092915050565b600061300682612fdf565b6130108185612fea565b9350613020818560208601611e49565b61302981611e73565b840191505092915050565b60006080820190506130496000830187611f74565b6130566020830186611f74565b61306360408301856122d2565b81810360608301526130758184612ffb565b905095945050505050565b60008151905061308f81611d9e565b92915050565b6000602082840312156130ab576130aa611d68565b5b60006130b984828501613080565b91505092915050565b7f4e487b7100000000000000000000000000000000000000000000000000000000600052601260045260246000fd5b7f4552433732313a206d696e7420746f20746865207a65726f2061646472657373600082015250565b6000613127602083611e38565b9150613132826130f1565b602082019050919050565b600060208201905081810360008301526131568161311a565b9050919050565b7f4552433732313a20746f6b656e20616c7265616479206d696e74656400000000600082015250565b6000613193601c83611e38565b915061319e8261315d565b602082019050919050565b600060208201905081810360008301526131c281613186565b905091905056fea2646970667358221220b62e4b8bbc39193b12a3c1d825e3ef71a09afaeadc4736b100e47bfadf4763c964736f6c63430008130033",
  "immutableReferences": {},
  "source": "// SPDX-License-Identifier: MIT\npragma solidity ^0.8.2;\n\nimport \"@openzeppelin/contracts/token/ERC721/ERC721.sol\";\nimport \"@openzeppelin/contracts/token/ERC721/extensions/ERC721URIStorage.sol\";\nimport \"@openzeppelin/contracts/access/Ownable.sol\";\nimport \"@openzeppelin/contracts/utils/Counters.sol\";\n\ncontract TestNFT is ERC721, ERC721URIStorage, Ownable {\n    using Counters for Counters.Counter;\n    Counters.Counter private _tokenIdCounter;\n    uint256 private _totalAmount = 0;\n\n    constructor() ERC721(\"TestNFT\", \"NFT\") {}\n\n    function _baseURI() internal pure override returns (string memory) {\n        return \"https://ipfs.io/ipfs/\";\n    }\n\n    function mintBatch(address[] memory to, string memory uri) public onlyOwner {\n        for(uint256 i = 0; i < to.length; i++) {\n            safeMint(to[i], uri);\n        }\n    }\n\n    function safeMint(address to, string memory uri) public onlyOwner {\n        uint256 tokenId = _tokenIdCounter.current();\n        _tokenIdCounter.increment();\n        _safeMint(to, tokenId);\n        _setTokenURI(tokenId, uri);\n        _totalAmount++;\n    }\n\n    // The following functions are overrides required by Solidity.\n\n    function _burn(uint256 tokenId) internal override(ERC721, ERC721URIStorage) {\n        super._burn(tokenId);\n        _totalAmount--;\n    }\n\n    function tokenURI(uint256 tokenId)\n        public\n        view\n        override(ERC721, ERC721URIStorage)\n        returns (string memory)\n    {\n        return super.tokenURI(tokenId);\n    }\n\n    function getTotalAmount() public view returns (uint256) {\n        return _totalAmount;\n    }\n\n    function isTokenOwner(uint256 tokenId, address owner) public view returns (bool) {\n        return ownerOf(tokenId) == owner;\n    }\n\n    function getTokenOwner(uint256 tokenId) public view returns (address) {\n        return ownerOf(tokenId);\n    }\n}",
  "sourcePath": "/Users/yundonghui/Desktop/study/web3/truffle-practice/contracts/TestNFT.sol",
  "compiler": {
    "name": "solc",
    "version": "0.8.19+commit.7dd6d404.Emscripten.clang"
  },
  "schemaVersion": "3.4.13",
  "updatedAt": "2023-05-05T18:45:37.240Z",
  "networkType": "ethereum",
  "devdoc": {
    "events": {
      "Approval(address,address,uint256)": {
        "details": "Emitted when `owner` enables `approved` to manage the `tokenId` token."
      },
      "ApprovalForAll(address,address,bool)": {
        "details": "Emitted when `owner` enables or disables (`approved`) `operator` to manage all of its assets."
      },
      "Transfer(address,address,uint256)": {
        "details": "Emitted when `tokenId` token is transferred from `from` to `to`."
      }
    },
    "kind": "dev",
    "methods": {
      "approve(address,uint256)": {
        "details": "See {IERC721-approve}."
      },
      "balanceOf(address)": {
        "details": "See {IERC721-balanceOf}."
      },
      "getApproved(uint256)": {
        "details": "See {IERC721-getApproved}."
      },
      "isApprovedForAll(address,address)": {
        "details": "See {IERC721-isApprovedForAll}."
      },
      "name()": {
        "details": "See {IERC721Metadata-name}."
      },
      "owner()": {
        "details": "Returns the address of the current owner."
      },
      "ownerOf(uint256)": {
        "details": "See {IERC721-ownerOf}."
      },
      "renounceOwnership()": {
        "details": "Leaves the contract without owner. It will not be possible to call `onlyOwner` functions anymore. Can only be called by the current owner. NOTE: Renouncing ownership will leave the contract without an owner, thereby removing any functionality that is only available to the owner."
      },
      "safeTransferFrom(address,address,uint256)": {
        "details": "See {IERC721-safeTransferFrom}."
      },
      "safeTransferFrom(address,address,uint256,bytes)": {
        "details": "See {IERC721-safeTransferFrom}."
      },
      "setApprovalForAll(address,bool)": {
        "details": "See {IERC721-setApprovalForAll}."
      },
      "supportsInterface(bytes4)": {
        "details": "See {IERC165-supportsInterface}."
      },
      "symbol()": {
        "details": "See {IERC721Metadata-symbol}."
      },
      "transferFrom(address,address,uint256)": {
        "details": "See {IERC721-transferFrom}."
      },
      "transferOwnership(address)": {
        "details": "Transfers ownership of the contract to a new account (`newOwner`). Can only be called by the current owner."
      }
    },
    "version": 1
  },
  "userdoc": {
    "kind": "user",
    "methods": {},
    "version": 1
  }
}